{
  "_format": "hh-sol-artifact-1",
  "contractName": "Amazon",
  "sourceName": "contracts/Amazon.sol",
  "abi": [
    {
      "inputs": [],
      "stateMutability": "nonpayable",
      "type": "constructor"
    },
    {
      "anonymous": false,
      "inputs": [
        {
          "indexed": false,
          "internalType": "address",
          "name": "buyer",
          "type": "address"
        },
        {
          "indexed": false,
          "internalType": "uint256",
          "name": "orderId",
          "type": "uint256"
        },
        {
          "indexed": false,
          "internalType": "uint256",
          "name": "itemId",
          "type": "uint256"
        }
      ],
      "name": "Buy",
      "type": "event"
    },
    {
      "anonymous": false,
      "inputs": [
        {
          "indexed": false,
          "internalType": "string",
          "name": "name",
          "type": "string"
        },
        {
          "indexed": false,
          "internalType": "uint256",
          "name": "cost",
          "type": "uint256"
        },
        {
          "indexed": false,
          "internalType": "uint256",
          "name": "quantity",
          "type": "uint256"
        }
      ],
      "name": "List",
      "type": "event"
    },
    {
      "inputs": [
        {
          "internalType": "uint256",
          "name": "",
          "type": "uint256"
        }
      ],
      "name": "Items",
      "outputs": [
        {
          "internalType": "uint256",
          "name": "id",
          "type": "uint256"
        },
        {
          "internalType": "string",
          "name": "name",
          "type": "string"
        },
        {
          "internalType": "string",
          "name": "category",
          "type": "string"
        },
        {
          "internalType": "string",
          "name": "image",
          "type": "string"
        },
        {
          "internalType": "uint256",
          "name": "cost",
          "type": "uint256"
        },
        {
          "internalType": "uint256",
          "name": "rating",
          "type": "uint256"
        },
        {
          "internalType": "uint256",
          "name": "stock",
          "type": "uint256"
        }
      ],
      "stateMutability": "view",
      "type": "function"
    },
    {
      "inputs": [
        {
          "internalType": "uint256",
          "name": "productId",
          "type": "uint256"
        }
      ],
      "name": "buy",
      "outputs": [],
      "stateMutability": "payable",
      "type": "function"
    },
    {
      "inputs": [
        {
          "internalType": "uint256",
          "name": "_id",
          "type": "uint256"
        },
        {
          "internalType": "string",
          "name": "_name",
          "type": "string"
        },
        {
          "internalType": "string",
          "name": "_category",
          "type": "string"
        },
        {
          "internalType": "string",
          "name": "_image",
          "type": "string"
        },
        {
          "internalType": "uint256",
          "name": "_cost",
          "type": "uint256"
        },
        {
          "internalType": "uint256",
          "name": "_rating",
          "type": "uint256"
        },
        {
          "internalType": "uint256",
          "name": "_stock",
          "type": "uint256"
        }
      ],
      "name": "list",
      "outputs": [],
      "stateMutability": "nonpayable",
      "type": "function"
    },
    {
      "inputs": [
        {
          "internalType": "address",
          "name": "",
          "type": "address"
        }
      ],
      "name": "orderCount",
      "outputs": [
        {
          "internalType": "uint256",
          "name": "",
          "type": "uint256"
        }
      ],
      "stateMutability": "view",
      "type": "function"
    },
    {
      "inputs": [],
      "name": "owner",
      "outputs": [
        {
          "internalType": "address",
          "name": "",
          "type": "address"
        }
      ],
      "stateMutability": "view",
      "type": "function"
    },
    {
      "inputs": [],
      "name": "withdraw",
      "outputs": [],
      "stateMutability": "nonpayable",
      "type": "function"
    }
  ],
  "bytecode": "0x608060405234801561001057600080fd5b50336000806101000a81548173ffffffffffffffffffffffffffffffffffffffff021916908373ffffffffffffffffffffffffffffffffffffffff1602179055506114a8806100606000396000f3fe6080604052600436106100555760003560e01c806317b47cc41461005a5780633ccfd60b1461009d578063713d856b146100b45780638da5cb5b146100f1578063d96a094a1461011c578063eea8a7e814610138575b600080fd5b34801561006657600080fd5b50610081600480360381019061007c9190610ae5565b610161565b6040516100949796959493929190610bb1565b60405180910390f35b3480156100a957600080fd5b506100b261033b565b005b3480156100c057600080fd5b506100db60048036038101906100d69190610c93565b610463565b6040516100e89190610cc0565b60405180910390f35b3480156100fd57600080fd5b5061010661047b565b6040516101139190610cea565b60405180910390f35b61013660048036038101906101319190610ae5565b61049f565b005b34801561014457600080fd5b5061015f600480360381019061015a9190610e3a565b610910565b005b600160205280600052604060002060009150905080600001549080600101805461018a90610f5f565b80601f01602080910402602001604051908101604052809291908181526020018280546101b690610f5f565b80156102035780601f106101d857610100808354040283529160200191610203565b820191906000526020600020905b8154815290600101906020018083116101e657829003601f168201915b50505050509080600201805461021890610f5f565b80601f016020809104026020016040519081016040528092919081815260200182805461024490610f5f565b80156102915780601f1061026657610100808354040283529160200191610291565b820191906000526020600020905b81548152906001019060200180831161027457829003601f168201915b5050505050908060030180546102a690610f5f565b80601f01602080910402602001604051908101604052809291908181526020018280546102d290610f5f565b801561031f5780601f106102f45761010080835404028352916020019161031f565b820191906000526020600020905b81548152906001019060200180831161030257829003601f168201915b5050505050908060040154908060050154908060060154905087565b60008054906101000a900473ffffffffffffffffffffffffffffffffffffffff1673ffffffffffffffffffffffffffffffffffffffff163373ffffffffffffffffffffffffffffffffffffffff16146103c9576040517f08c379a00000000000000000000000000000000000000000000000000000000081526004016103c090611002565b60405180910390fd5b60008060009054906101000a900473ffffffffffffffffffffffffffffffffffffffff1673ffffffffffffffffffffffffffffffffffffffff164760405161041090611053565b60006040518083038185875af1925050503d806000811461044d576040519150601f19603f3d011682016040523d82523d6000602084013e610452565b606091505b505090508061046057600080fd5b50565b60026020528060005260406000206000915090505481565b60008054906101000a900473ffffffffffffffffffffffffffffffffffffffff1681565b6000600160008381526020019081526020016000206040518060e0016040529081600082015481526020016001820180546104d990610f5f565b80601f016020809104026020016040519081016040528092919081815260200182805461050590610f5f565b80156105525780601f1061052757610100808354040283529160200191610552565b820191906000526020600020905b81548152906001019060200180831161053557829003601f168201915b5050505050815260200160028201805461056b90610f5f565b80601f016020809104026020016040519081016040528092919081815260200182805461059790610f5f565b80156105e45780601f106105b9576101008083540402835291602001916105e4565b820191906000526020600020905b8154815290600101906020018083116105c757829003601f168201915b505050505081526020016003820180546105fd90610f5f565b80601f016020809104026020016040519081016040528092919081815260200182805461062990610f5f565b80156106765780601f1061064b57610100808354040283529160200191610676565b820191906000526020600020905b81548152906001019060200180831161065957829003601f168201915b505050505081526020016004820154815260200160058201548152602001600682015481525050905080608001513410156106e6576040517f08c379a00000000000000000000000000000000000000000000000000000000081526004016106dd906110b4565b60405180910390fd5b60006040518060400160405280428152602001838152509050600260003373ffffffffffffffffffffffffffffffffffffffff1673ffffffffffffffffffffffffffffffffffffffff168152602001908152602001600020600081548092919061074f90611103565b919050555080600360003373ffffffffffffffffffffffffffffffffffffffff1673ffffffffffffffffffffffffffffffffffffffff1681526020019081526020016000206000600260003373ffffffffffffffffffffffffffffffffffffffff1673ffffffffffffffffffffffffffffffffffffffff1681526020019081526020016000205481526020019081526020016000206000820151816000015560208201518160010160008201518160000155602082015181600101908161081691906112f7565b50604082015181600201908161082c91906112f7565b50606082015181600301908161084291906112f7565b506080820151816004015560a0820151816005015560c08201518160060155505090505060018260c0015161087791906113c9565b60016000858152602001908152602001600020600601819055507f1cbc5ab135991bd2b6a4b034a04aa2aa086dac1371cb9b16b8b5e2ed6b036bed33600260003373ffffffffffffffffffffffffffffffffffffffff1673ffffffffffffffffffffffffffffffffffffffff1681526020019081526020016000205485604051610903939291906113fd565b60405180910390a1505050565b60008054906101000a900473ffffffffffffffffffffffffffffffffffffffff1673ffffffffffffffffffffffffffffffffffffffff163373ffffffffffffffffffffffffffffffffffffffff161461099e576040517f08c379a000000000000000000000000000000000000000000000000000000000815260040161099590611002565b60405180910390fd5b60006040518060e0016040528089815260200188815260200187815260200186815260200185815260200184815260200183815250905080600160008a8152602001908152602001600020600082015181600001556020820151816001019081610a0891906112f7565b506040820151816002019081610a1e91906112f7565b506060820151816003019081610a3491906112f7565b506080820151816004015560a0820151816005015560c082015181600601559050507ffdbe2a012c10ec01592653978eaa09b5ca60b143a0e617505b2ebcbd911ec5b8878584604051610a8993929190611434565b60405180910390a15050505050505050565b6000604051905090565b600080fd5b600080fd5b6000819050919050565b610ac281610aaf565b8114610acd57600080fd5b50565b600081359050610adf81610ab9565b92915050565b600060208284031215610afb57610afa610aa5565b5b6000610b0984828501610ad0565b91505092915050565b610b1b81610aaf565b82525050565b600081519050919050565b600082825260208201905092915050565b60005b83811015610b5b578082015181840152602081019050610b40565b60008484015250505050565b6000601f19601f8301169050919050565b6000610b8382610b21565b610b8d8185610b2c565b9350610b9d818560208601610b3d565b610ba681610b67565b840191505092915050565b600060e082019050610bc6600083018a610b12565b8181036020830152610bd88189610b78565b90508181036040830152610bec8188610b78565b90508181036060830152610c008187610b78565b9050610c0f6080830186610b12565b610c1c60a0830185610b12565b610c2960c0830184610b12565b98975050505050505050565b600073ffffffffffffffffffffffffffffffffffffffff82169050919050565b6000610c6082610c35565b9050919050565b610c7081610c55565b8114610c7b57600080fd5b50565b600081359050610c8d81610c67565b92915050565b600060208284031215610ca957610ca8610aa5565b5b6000610cb784828501610c7e565b91505092915050565b6000602082019050610cd56000830184610b12565b92915050565b610ce481610c55565b82525050565b6000602082019050610cff6000830184610cdb565b92915050565b600080fd5b600080fd5b7f4e487b7100000000000000000000000000000000000000000000000000000000600052604160045260246000fd5b610d4782610b67565b810181811067ffffffffffffffff82111715610d6657610d65610d0f565b5b80604052505050565b6000610d79610a9b565b9050610d858282610d3e565b919050565b600067ffffffffffffffff821115610da557610da4610d0f565b5b610dae82610b67565b9050602081019050919050565b82818337600083830152505050565b6000610ddd610dd884610d8a565b610d6f565b905082815260208101848484011115610df957610df8610d0a565b5b610e04848285610dbb565b509392505050565b600082601f830112610e2157610e20610d05565b5b8135610e31848260208601610dca565b91505092915050565b600080600080600080600060e0888a031215610e5957610e58610aa5565b5b6000610e678a828b01610ad0565b975050602088013567ffffffffffffffff811115610e8857610e87610aaa565b5b610e948a828b01610e0c565b965050604088013567ffffffffffffffff811115610eb557610eb4610aaa565b5b610ec18a828b01610e0c565b955050606088013567ffffffffffffffff811115610ee257610ee1610aaa565b5b610eee8a828b01610e0c565b9450506080610eff8a828b01610ad0565b93505060a0610f108a828b01610ad0565b92505060c0610f218a828b01610ad0565b91505092959891949750929550565b7f4e487b7100000000000000000000000000000000000000000000000000000000600052602260045260246000fd5b60006002820490506001821680610f7757607f821691505b602082108103610f8a57610f89610f30565b5b50919050565b7f6f6e6c79206f776e65722063616e2063616c6c20746869732066756e6374696f60008201527f6e20000000000000000000000000000000000000000000000000000000000000602082015250565b6000610fec602283610b2c565b9150610ff782610f90565b604082019050919050565b6000602082019050818103600083015261101b81610fdf565b9050919050565b600081905092915050565b50565b600061103d600083611022565b91506110488261102d565b600082019050919050565b600061105e82611030565b9150819050919050565b7f616d6f756e74206973206c657373207468616e20746865207072696365200000600082015250565b600061109e601e83610b2c565b91506110a982611068565b602082019050919050565b600060208201905081810360008301526110cd81611091565b9050919050565b7f4e487b7100000000000000000000000000000000000000000000000000000000600052601160045260246000fd5b600061110e82610aaf565b91507fffffffffffffffffffffffffffffffffffffffffffffffffffffffffffffffff82036111405761113f6110d4565b5b600182019050919050565b60008190508160005260206000209050919050565b60006020601f8301049050919050565b600082821b905092915050565b6000600883026111ad7fffffffffffffffffffffffffffffffffffffffffffffffffffffffffffffffff82611170565b6111b78683611170565b95508019841693508086168417925050509392505050565b6000819050919050565b60006111f46111ef6111ea84610aaf565b6111cf565b610aaf565b9050919050565b6000819050919050565b61120e836111d9565b61122261121a826111fb565b84845461117d565b825550505050565b600090565b61123761122a565b611242818484611205565b505050565b5b818110156112665761125b60008261122f565b600181019050611248565b5050565b601f8211156112ab5761127c8161114b565b61128584611160565b81016020851015611294578190505b6112a86112a085611160565b830182611247565b50505b505050565b600082821c905092915050565b60006112ce600019846008026112b0565b1980831691505092915050565b60006112e783836112bd565b9150826002028217905092915050565b61130082610b21565b67ffffffffffffffff81111561131957611318610d0f565b5b6113238254610f5f565b61132e82828561126a565b600060209050601f831160018114611361576000841561134f578287015190505b61135985826112db565b8655506113c1565b601f19841661136f8661114b565b60005b8281101561139757848901518255600182019150602085019450602081019050611372565b868310156113b457848901516113b0601f8916826112bd565b8355505b6001600288020188555050505b505050505050565b60006113d482610aaf565b91506113df83610aaf565b92508282039050818111156113f7576113f66110d4565b5b92915050565b60006060820190506114126000830186610cdb565b61141f6020830185610b12565b61142c6040830184610b12565b949350505050565b6000606082019050818103600083015261144e8186610b78565b905061145d6020830185610b12565b61146a6040830184610b12565b94935050505056fea2646970667358221220ca6e29c66835bfc764477809d23364b10f4d5f4e089be83c1fbb4b497ef262b964736f6c63430008180033",
  "linkReferences": {},
  "deployedLinkReferences": {}
}